{
  "contractName": "ServiceList",
  "abi": [
    {
      "constant": true,
      "inputs": [
        {
          "name": "",
          "type": "uint256"
        }
      ],
      "name": "serv1",
      "outputs": [
        {
          "name": "details",
          "type": "string"
        },
        {
          "name": "photohash",
          "type": "string"
        },
        {
          "name": "customeremail",
          "type": "string"
        },
        {
          "name": "customerpublic",
          "type": "address"
        }
      ],
      "payable": false,
      "stateMutability": "view",
      "type": "function",
      "signature": "0x4d55453d"
    },
    {
      "constant": true,
      "inputs": [],
      "name": "servicecount",
      "outputs": [
        {
          "name": "",
          "type": "uint256"
        }
      ],
      "payable": false,
      "stateMutability": "view",
      "type": "function",
      "signature": "0x847fd7f1"
    },
    {
      "inputs": [],
      "payable": false,
      "stateMutability": "nonpayable",
      "type": "constructor",
      "signature": "constructor"
    },
    {
      "anonymous": false,
      "inputs": [
        {
          "indexed": false,
          "name": "service",
          "type": "string"
        },
        {
          "indexed": false,
          "name": "email",
          "type": "string"
        },
        {
          "indexed": false,
          "name": "taskNumber",
          "type": "uint256"
        }
      ],
      "name": "ServiceCreated",
      "type": "event",
      "signature": "0xc3c2ab85cbeffce597ed1e6933d0b707179ed82d13d81136b9e678e0a48f320e"
    },
    {
      "constant": false,
      "inputs": [
        {
          "name": "_details",
          "type": "string"
        },
        {
          "name": "_photohash",
          "type": "string"
        },
        {
          "name": "_customeremail",
          "type": "string"
        },
        {
          "name": "_customerpublic",
          "type": "address"
        }
      ],
      "name": "createTask",
      "outputs": [],
      "payable": false,
      "stateMutability": "nonpayable",
      "type": "function",
      "signature": "0x00aa176c"
    }
  ],
  "bytecode": "0x608060405234801561001057600080fd5b5060008081905550610961806100276000396000f3fe608060405260043610610056576000357c0100000000000000000000000000000000000000000000000000000000900463ffffffff168062aa176c1461005b5780634d55453d14610271578063847fd7f114610430575b600080fd5b34801561006757600080fd5b5061026f6004803603608081101561007e57600080fd5b810190808035906020019064010000000081111561009b57600080fd5b8201836020820111156100ad57600080fd5b803590602001918460018302840111640100000000831117156100cf57600080fd5b91908080601f016020809104026020016040519081016040528093929190818152602001838380828437600081840152601f19601f8201169050808301925050505050505091929192908035906020019064010000000081111561013257600080fd5b82018360208201111561014457600080fd5b8035906020019184600183028401116401000000008311171561016657600080fd5b91908080601f016020809104026020016040519081016040528093929190818152602001838380828437600081840152601f19601f820116905080830192505050505050509192919290803590602001906401000000008111156101c957600080fd5b8201836020820111156101db57600080fd5b803590602001918460018302840111640100000000831117156101fd57600080fd5b91908080601f016020809104026020016040519081016040528093929190818152602001838380828437600081840152601f19601f820116905080830192505050505050509192919290803573ffffffffffffffffffffffffffffffffffffffff16906020019092919050505061045b565b005b34801561027d57600080fd5b506102aa6004803603602081101561029457600080fd5b8101908080359060200190929190505050610672565b604051808060200180602001806020018573ffffffffffffffffffffffffffffffffffffffff1673ffffffffffffffffffffffffffffffffffffffff168152602001848103845288818151815260200191508051906020019080838360005b83811015610324578082015181840152602081019050610309565b50505050905090810190601f1680156103515780820380516001836020036101000a031916815260200191505b50848103835287818151815260200191508051906020019080838360005b8381101561038a57808201518184015260208101905061036f565b50505050905090810190601f1680156103b75780820380516001836020036101000a031916815260200191505b50848103825286818151815260200191508051906020019080838360005b838110156103f05780820151818401526020810190506103d5565b50505050905090810190601f16801561041d5780820380516001836020036101000a031916815260200191505b5097505050505050505060405180910390f35b34801561043c57600080fd5b5061044561088a565b6040518082815260200191505060405180910390f35b6080604051908101604052808581526020018481526020018381526020018273ffffffffffffffffffffffffffffffffffffffff168152506001600080600081548092919060010191905055815260200190815260200160002060008201518160000190805190602001906104d1929190610890565b5060208201518160010190805190602001906104ee929190610890565b50604082015181600201908051906020019061050b929190610890565b5060608201518160030160006101000a81548173ffffffffffffffffffffffffffffffffffffffff021916908373ffffffffffffffffffffffffffffffffffffffff1602179055509050507fc3c2ab85cbeffce597ed1e6933d0b707179ed82d13d81136b9e678e0a48f320e8483600160005403604051808060200180602001848152602001838103835286818151815260200191508051906020019080838360005b838110156105c95780820151818401526020810190506105ae565b50505050905090810190601f1680156105f65780820380516001836020036101000a031916815260200191505b50838103825285818151815260200191508051906020019080838360005b8381101561062f578082015181840152602081019050610614565b50505050905090810190601f16801561065c5780820380516001836020036101000a031916815260200191505b509550505050505060405180910390a150505050565b6001602052806000526040600020600091509050806000018054600181600116156101000203166002900480601f01602080910402602001604051908101604052809291908181526020018280546001816001161561010002031660029004801561071e5780601f106106f35761010080835404028352916020019161071e565b820191906000526020600020905b81548152906001019060200180831161070157829003601f168201915b505050505090806001018054600181600116156101000203166002900480601f0160208091040260200160405190810160405280929190818152602001828054600181600116156101000203166002900480156107bc5780601f10610791576101008083540402835291602001916107bc565b820191906000526020600020905b81548152906001019060200180831161079f57829003601f168201915b505050505090806002018054600181600116156101000203166002900480601f01602080910402602001604051908101604052809291908181526020018280546001816001161561010002031660029004801561085a5780601f1061082f5761010080835404028352916020019161085a565b820191906000526020600020905b81548152906001019060200180831161083d57829003601f168201915b5050505050908060030160009054906101000a900473ffffffffffffffffffffffffffffffffffffffff16905084565b60005481565b828054600181600116156101000203166002900490600052602060002090601f016020900481019282601f106108d157805160ff19168380011785556108ff565b828001600101855582156108ff579182015b828111156108fe5782518255916020019190600101906108e3565b5b50905061090c9190610910565b5090565b61093291905b8082111561092e576000816000905550600101610916565b5090565b9056fea165627a7a723058208d1a3e25345703b8de20111d03aa8bd29eab3a6f59ec8eb549fdbe1eed7440cb0029",
  "source": "// SPDX-License-Identifier: MIT\r\npragma solidity >=0.4.22 <0.9.0;\r\n\r\ncontract ServiceList{\r\n    uint public servicecount;\r\n\r\n    struct Service{\r\n        string details;\r\n        string photohash;\r\n        string customeremail;\r\n        address customerpublic;\r\n    }  \r\n\r\n    mapping(uint => Service) public serv1;\r\n\r\n    event ServiceCreated(string service,string email,uint taskNumber);\r\n\r\n    constructor() public {\r\n        servicecount =0;\r\n    }\r\n    \r\n    function createTask(string memory _details,string memory _photohash,string memory _customeremail,address _customerpublic) public{\r\n        serv1[servicecount++] = Service(_details,_photohash,_customeremail,_customerpublic);\r\n        emit ServiceCreated(_details,_customeremail,servicecount-1);\r\n    }\r\n\r\n\r\n}",
  "sourcePath": "C:/app_projects/service/contracts/ServiceList.sol",
  "compiler": {
    "name": "solc",
    "version": "0.5.0+commit.1d4f565a.Emscripten.clang"
  },
  "schemaVersion": "3.0.1",
  "updatedAt": "2022-04-27T18:59:12.985Z",
  "devdoc": {
    "methods": {}
  },
  "userdoc": {
    "methods": {}
  }
}