{
  "contractName": "ServiceList",
  "abi": [
    {
      "constant": true,
      "inputs": [
        {
          "name": "",
          "type": "uint256"
        }
      ],
      "name": "serv1",
      "outputs": [
        {
          "name": "customeremail",
          "type": "string"
        },
        {
          "name": "carreg",
          "type": "string"
        },
        {
          "name": "servicehash",
          "type": "string"
        }
      ],
      "payable": false,
      "stateMutability": "view",
      "type": "function",
      "signature": "0x4d55453d"
    },
    {
      "constant": true,
      "inputs": [],
      "name": "servicecount",
      "outputs": [
        {
          "name": "",
          "type": "uint256"
        }
      ],
      "payable": false,
      "stateMutability": "view",
      "type": "function",
      "signature": "0x847fd7f1"
    },
    {
      "inputs": [],
      "payable": false,
      "stateMutability": "nonpayable",
      "type": "constructor",
      "signature": "constructor"
    },
    {
      "anonymous": false,
      "inputs": [
        {
          "indexed": false,
          "name": "_customeremail",
          "type": "string"
        },
        {
          "indexed": false,
          "name": "carreg",
          "type": "string"
        },
        {
          "indexed": false,
          "name": "servicehash",
          "type": "string"
        }
      ],
      "name": "ServiceCreated",
      "type": "event",
      "signature": "0x5fca04b704468e51d37c28cd837018013efe040a4792ef0d7c51a45063428de2"
    },
    {
      "constant": false,
      "inputs": [
        {
          "name": "_customeremail",
          "type": "string"
        },
        {
          "name": "_carreg",
          "type": "string"
        },
        {
          "name": "_servicehash",
          "type": "string"
        }
      ],
      "name": "createService",
      "outputs": [],
      "payable": false,
      "stateMutability": "nonpayable",
      "type": "function",
      "signature": "0x05d47057"
    }
  ],
  "bytecode": "0x608060405234801561001057600080fd5b50600080819055506108e5806100276000396000f3fe608060405260043610610057576000357c0100000000000000000000000000000000000000000000000000000000900463ffffffff16806305d470571461005c5780634d55453d14610252578063847fd7f1146103de575b600080fd5b34801561006857600080fd5b506102506004803603606081101561007f57600080fd5b810190808035906020019064010000000081111561009c57600080fd5b8201836020820111156100ae57600080fd5b803590602001918460018302840111640100000000831117156100d057600080fd5b91908080601f016020809104026020016040519081016040528093929190818152602001838380828437600081840152601f19601f8201169050808301925050505050505091929192908035906020019064010000000081111561013357600080fd5b82018360208201111561014557600080fd5b8035906020019184600183028401116401000000008311171561016757600080fd5b91908080601f016020809104026020016040519081016040528093929190818152602001838380828437600081840152601f19601f820116905080830192505050505050509192919290803590602001906401000000008111156101ca57600080fd5b8201836020820111156101dc57600080fd5b803590602001918460018302840111640100000000831117156101fe57600080fd5b91908080601f016020809104026020016040519081016040528093929190818152602001838380828437600081840152601f19601f820116905080830192505050505050509192919290505050610409565b005b34801561025e57600080fd5b5061028b6004803603602081101561027557600080fd5b810190808035906020019092919050505061061c565b60405180806020018060200180602001848103845287818151815260200191508051906020019080838360005b838110156102d35780820151818401526020810190506102b8565b50505050905090810190601f1680156103005780820380516001836020036101000a031916815260200191505b50848103835286818151815260200191508051906020019080838360005b8381101561033957808201518184015260208101905061031e565b50505050905090810190601f1680156103665780820380516001836020036101000a031916815260200191505b50848103825285818151815260200191508051906020019080838360005b8381101561039f578082015181840152602081019050610384565b50505050905090810190601f1680156103cc5780820380516001836020036101000a031916815260200191505b50965050505050505060405180910390f35b3480156103ea57600080fd5b506103f361080e565b6040518082815260200191505060405180910390f35b60606040519081016040528084815260200183815260200182815250600160008060008154809291906001019190505581526020019081526020016000206000820151816000019080519060200190610463929190610814565b506020820151816001019080519060200190610480929190610814565b50604082015181600201908051906020019061049d929190610814565b509050507f5fca04b704468e51d37c28cd837018013efe040a4792ef0d7c51a45063428de283838360405180806020018060200180602001848103845287818151815260200191508051906020019080838360005b8381101561050d5780820151818401526020810190506104f2565b50505050905090810190601f16801561053a5780820380516001836020036101000a031916815260200191505b50848103835286818151815260200191508051906020019080838360005b83811015610573578082015181840152602081019050610558565b50505050905090810190601f1680156105a05780820380516001836020036101000a031916815260200191505b50848103825285818151815260200191508051906020019080838360005b838110156105d95780820151818401526020810190506105be565b50505050905090810190601f1680156106065780820380516001836020036101000a031916815260200191505b50965050505050505060405180910390a1505050565b6001602052806000526040600020600091509050806000018054600181600116156101000203166002900480601f0160208091040260200160405190810160405280929190818152602001828054600181600116156101000203166002900480156106c85780601f1061069d576101008083540402835291602001916106c8565b820191906000526020600020905b8154815290600101906020018083116106ab57829003601f168201915b505050505090806001018054600181600116156101000203166002900480601f0160208091040260200160405190810160405280929190818152602001828054600181600116156101000203166002900480156107665780601f1061073b57610100808354040283529160200191610766565b820191906000526020600020905b81548152906001019060200180831161074957829003601f168201915b505050505090806002018054600181600116156101000203166002900480601f0160208091040260200160405190810160405280929190818152602001828054600181600116156101000203166002900480156108045780601f106107d957610100808354040283529160200191610804565b820191906000526020600020905b8154815290600101906020018083116107e757829003601f168201915b5050505050905083565b60005481565b828054600181600116156101000203166002900490600052602060002090601f016020900481019282601f1061085557805160ff1916838001178555610883565b82800160010185558215610883579182015b82811115610882578251825591602001919060010190610867565b5b5090506108909190610894565b5090565b6108b691905b808211156108b257600081600090555060010161089a565b5090565b9056fea165627a7a7230582089d17f117743cca5e425c3bcd2c123de572ba5ebcaa0c860b501c80cfa62fb620029",
  "source": "// SPDX-License-Identifier: MIT\r\npragma solidity >=0.4.22 <0.9.0;\r\n\r\ncontract ServiceList{\r\n    uint public servicecount;\r\n\r\n    struct Service{\r\n        string customeremail;\r\n        string carreg;\r\n        string servicehash;\r\n    }  \r\n\r\n    mapping(uint => Service) public serv1;\r\n\r\n    event ServiceCreated(string _customeremail,string carreg,string servicehash);\r\n\r\n    constructor() public {\r\n        servicecount =0;\r\n    }\r\n    \r\n    function createService(string memory _customeremail,string memory _carreg,string memory _servicehash) public{\r\n        serv1[servicecount++] = Service(_customeremail,_carreg,_servicehash);\r\n        emit ServiceCreated(_customeremail,_carreg,_servicehash);\r\n    }\r\n\r\n\r\n}",
  "sourcePath": "C:/app_projects/service/contracts/ServiceList.sol",
  "compiler": {
    "name": "solc",
    "version": "0.5.0+commit.1d4f565a.Emscripten.clang"
  },
  "schemaVersion": "3.0.1",
  "updatedAt": "2022-04-27T20:45:11.077Z",
  "devdoc": {
    "methods": {}
  },
  "userdoc": {
    "methods": {}
  }
}